:020000022000DC
:10600000000004203DEB03007DEB03007FEB030069
:1060100081EB030083EB030085EB0300000000002D
:10602000000000000000000000000000B9EA0300CA
:1060300089EB030000000000D9EA03008DEB0300A8
:106040001DED03008FEB03008FEB03008FEB0300CC
:106050008FEB03008FEB03001DC703008FEB0300E2
:106060008FEB03008FEB03008FEB03008FEB03003C
:106070008FEB03008FEB03008FEB03008FEB03002C
:106080008FEB030009E803008FEB03008FEB0300A5
:106090008FEB03008FEB03008FEB03008FEB03000C
:1060A0008FEB03008FEB03008FEB03008FEB0300FC
:1060B0008FEB03008FEB03000000000000000000E6
:1060C0008FEB03008FEB03008FEB0300ADEF0300BA
:1060D0008FEB03008FEB03008FEB0300E10903005C
:1060E0008FEB03008FEB03008FEB03000000000039
:1060F000000000008FEB03000000000025F003000B
:10610000000000000000000000000000000000008F
:10611000000000000000000000000000000000007F
:10612000000000000000000000000000000000006F
:10613000000000000000000000000000000000005F
:10614000000000000000000000000000000000004F
:10615000000000000000000000000000000000003F
:10616000000000000000000000000000000000002F
:10617000000000000000000000000000000000001F
:10618000000000000000000000000000000000000F
:1061900000000000000000000000000000000000FF
:1061A00000000000000000000000000000000000EF
:1061B00000000000000000000000000000000000DF
:1061C00000000000000000000000000000000000CF
:1061D00000000000000000000000000000000000BF
:1061E00000000000000000000000000000000000AF
:1061F000000000000000000000000000000000009F
:10620000F1EE103A43F08073E1EE103A704700BFB0
:1062100010B5054C237833B9044B13B10448AFF3E0
:1062200000800123237010BDF863002000000000EF
:10623000785B040008B5034B1BB103490348AFF377
:10624000008008BD00000000FC630020785B0400B3
:10625000154B002B08BF134B9D46A3F5803A002138
:106260008B460F461348144A121A19F059FD0F4B6A
:10627000002B00D098470E4B002B00D098470020F1
:10628000002104000D000D48002802D00C48AFF397
:10629000008019F0DBFC2000290018F0A7FC19F0A1
:1062A000AFFC00BF00000800000004200000000058
:1062B00000000000F863002090A80020000000000B
:1062C00000000000704700BF002070472DE9F0413A
:1062D000734D84B001F092FA09F02AF905F0E8FD57
:1062E000704815F05FFF00F039FA2878002800F0B8
:1062F0008F80C21E18BF01226B4B6C4F1A7000F0CA
:10630000E7FA03686A4ADB693860934240F08D809F
:106310002C78684E0DF04EFD1E2016F04DFA6648A2
:1063200009F064FF654964484FF4007209F01EFFEC
:106330002978634B634A64480E44122116F8016CB5
:1063400000961AF083FB60495B4809F033FF386818
:106350000368073C9B68E4B29847012C5AD8002692
:10636000B046554B5B69A022DA710DF02DFD574800
:106370004FF4E13109F008FE4FF4967403E016F093
:106380001BFA013C05D00DF0EBFC03460A20002B64
:10639000F5D00DF0EDFC002842D100F0F5F801F049
:1063A0006DF82B784A494948082B96BF494A4A4B11
:1063B00052F823300093424A484B16F081F94EB10F
:1063C000474A484B48494148B8F1000F08BF1A46B0
:1063D00016F076F9454A4649464BD47890780978C4
:1063E0001B78CDE90004CDE90231384853784249A1
:1063F000127816F065F9414B41490122C3F80C258A
:10640000C3F80415C3F808251A6004B0BDE8F0818C
:10641000024671E709F000F93A480AF05DFC9EE790
:106420000DF0AEFC09F098F8B7E79847064600284B
:106430003FF46EAF344B93F80080B8F1000F1BD1DE
:106440000DF0B8FC1E2016F0B7F91B4809F0CEFE7F
:106450004FF400721949184809F088FE1849164887
:1064600009F0A8FE27480AF037FC09F0D5F838688B
:1064700003689B68984774E70DF09CFC1E2016F09B
:106480009BF94FF400720D490B4809F06FFE0C495F
:10649000094809F08FFE1B480AF01EFCE7E700BF21
:1064A000B1670020488D0020B2670020B46700204B
:1064B000C9620200103804005077002014640020E4
:1064C000A86F002064370400B86F002034770020E4
:1064D000E43604001838040078360400986F002071
:1064E00084360400C43604001037040064600020C1
:1064F000686000206960002020370400000001402F
:10650000FFFF030014770020AE670020124A1349F2
:1065100008B5134BC2F800161A78AAB909F0C2F9E7
:10652000104B186820B103680F4A5B69934210D181
:1065300008F09AF906F012FB07F0AEFD01F048F8FA
:10654000BDE8084009F01EB800221A7000F058F8A3
:10655000E4E79847ECE700BF000001403546526E83
:1065600020660020B4670020C5620200431E173079
:1065700001E0834205D013F8012F002AF9D0002052
:1065800070470120704700BF70B59AB0194901A843
:1065900010F0B4FD184901A8002210F069FE80B186
:1065A000164C002504F5B47601220DF1030101A873
:1065B0008DF8035010F078FE012807D05A34B44209
:1065C000F2D101A810F090FE1AB070BD9DF8033012
:1065D000003B18BF012323762146182201A85A3414
:1065E00010F062FEB442DFD101A810F07DFE1AB0B7
:1065F00070BD00BF488D00203C3804004466002078
:1066000030B5144914489BB010F06AFC124901A837
:1066100010F074FD0F4901A8012210F029FEB0B15D
:106620000E4C04F5B475237E8DF8033001220DF174
:10663000030101A810F06EFC2146182201A85A346B
:1066400010F068FCAC42EED101A810F04DFE1BB07A
:1066500030BD00BF3C380400488D00204466002057
:1066600010B5044C204615F09DFD2046BDE81040B5
:1066700010F002BC488D0020F0B52B4B2B4E2C4D5A
:106680002C4C2D481B682D4A2D4936782D682478CE
:10669000007809789FB08DF802302A4B8DF80160A0
:1066A0008DF80350284E8DF804408DF80500274DD5
:1066B0001088274C5288ADF806008DF80B1098789A
:1066C000597837782D781E782478ADF8082028235B
:1066D000C9228DF80E108DF80F001E491E488DF846
:1066E00000208DF80A308DF80C708DF80D608DF853
:1066F00010508DF8114010F0F3FB174905A810F069
:10670000FDFC144905A8012210F0B2FD08B91FB024
:10671000F0BD1222694605A810F0FCFB05A810F098
:10672000E3FD1FB0F0BD00BF18600020B16700207E
:106730001C600020AC670020AD6700200C600020CA
:10674000AF6700201460002010600020B0670020B8
:106750002060002048380400488D0020F0B59FB02C
:10676000414905A810F0CAFC404905A8002210F0D4
:106770007FFD08B91FB0F0BD04461222694605A886
:1067800010F092FD122804D005A810F0ADFD1FB046
:10679000F0BD9DF80030C92BF6D19DF80220344D94
:1067A0009DF80B109DF804303248334E002A08BF84
:1067B00040222A600A1E18BF0122002B2F4D0270B2
:1067C00014BF012700272E4837709DF803602D4A1B
:1067D0002E609DF805500570DDF80600106003D0AE
:1067E000294B00221A7023469DF80A009DF80C20C0
:1067F000282818BF2346FF2A2BD0244B092A28BF5C
:1068000000221A709DF80D109DF80E209DF80F3093
:106810001F4D092928BF0321092A28BF0122092B5E
:1068200028BF042329706A701A491B4AAB7005A857
:106830009DF810509DF811300D70137010F054FD3C
:10684000002C97D0154BFF221A70FFF715FF1FB0D1
:10685000F0BD21B19DF80110092928BF00210B4A84
:106860001C461170CEE700BF488D00204838040058
:1068700018600020AF670020AE6700201C60002079
:10688000AD6700200C600020AC670020B1670020DD
:1068900014600020B06700202060002010600020FD
:1068A000044B1B7813B1044B1870FF20034B187076
:1068B000FFF7E2BEAF670020B16700201060002044
:1068C000024B01221A70FFF7D7BE00BFAC67002051
:1068D0000138C0B207289ABF024B53F82000024883
:1068E000704700BF5838040040600020013910296B
:1068F0000ED8DFE801F00E13181D22272C31363B8D
:1069000040454A4F54590900036843F0004303606F
:106910007047036843F0010303607047036843F066
:10692000020303607047036843F004030360704789
:10693000036843F0080303607047036843F40023CF
:1069400003607047036843F4007303607047036893
:1069500043F4004303607047036843F0200303607F
:106960007047036843F0400303607047036843F0D7
:10697000100303607047036843F48033036070477B
:10698000036843F4005303607047036843F4806373
:1069900003607047036843F48053036070470368E3
:1069A00043F4006303607047036843F0804303606F
:1069B000704700BF084A094B0949C0F81210C0F8D7
:1069C0000620C0F80A20C0F80E20C0F81630C0F823
:1069D0001A30C0F81E3070471C0BE4F4002000E0B1
:1069E0001C0B1C0B31B10012C0F18003803006D1AA
:1069F000FF207047C0F3072080F080007047D8B2B6
:106A0000704700BF70B4802404604460BDF810601B
:106A1000BDF80C40BDF8145059B942B1C6F3032378
:106A200043EA05132D11017046708370C57070BC68
:106A30007047AAB1C3F3032242EA04124370C6F3BB
:106A40000323241143EA051382702D110021012232
:106A5000C4704671C571837170BC0170027170475A
:106A6000C3F3032141EA04112411C470027070BC05
:106A700043708170704700BF2DE9F041BDF91840A7
:106A8000BDF91C70264E02F5004204F50044C2EB2D
:106A9000021CC2EB8C124D1EC4EB041CADB2C4EB45
:106AA0008C1403F5004307F50047A6FB04C4DDE999
:106AB000098E05FB03F305FB07F7A6FB03C3A6FB43
:106AC00002C2E40BA6FB0767DDF820C00B9EA5EB16
:106AD000D333D20B04F57074A5EBD73510F0C06F2B
:106AE000ACF80020A8F80030AEF8004000F4C00375
:106AF000358001D082010AD53BB1830205D4490813
:106B00004FF4B463AEF800303180BDE8F0814FF44B
:106B1000F0744A08ACF80040A8F80020ECE700BF89
:106B20000180008000B5224B83B01B7801900BB12F
:106B3000C20610D41F4B834304BF20F00F00019006
:106B4000830327D401061ED4420315D4C3050AD4F7
:106B500003B05DF804FB013BDBB2102B20F010000A
:106B60001FD90190E6E7144B01A8D978FFF7BEFEC4
:106B7000019803B05DF804FB0F4B01A89978FFF76B
:106B8000B5FE0198E2E70C4B01A85978FFF7AEFE7D
:106B90000198D9E7084B01A81978FFF7A7FE0198DB
:106BA000D0E7064A52F8233018430190C2E700BFED
:106BB000B0670020800106000C60002078380400D7
:106BC00030B41A4C217B030A03F002022829C0F3D7
:106BD000C04343EA020321D8627B10F0006F0CBF70
:106BE00000210421282A1ED810F4000F0CBF002217
:106BF0000822840A04F010044508234305F0200508
:106C0000440A2B4304F040048000234320F07F001B
:106C1000184308431043C0B230BC7047627B282A37
:106C20004FF00401E0D90822E3E700BFC47600205A
:106C300000F4806300F4805100F4006210F400500E
:106C400005D082B99BB181B940B100207047002ABC
:106C5000F8D0002B0CBF022003207047002B14BF7C
:106C60000420082070470120704705207047002944
:106C7000EAD000280CBF062007207047174B1B786E
:106C80000246ABB100F00103002B0BBF20206020B7
:106C90000023402312F0020F08BF1846510748BFD7
:106CA00040F08000130718D540F01000C0B27047C4
:106CB00000F0010100290EBF40206020202312F0C7
:106CC000020F08BF1846510744BF40F01003D8B266
:106CD000130744BF60F07F00C0B27047AD6700206B
:106CE000F0B4EFF3108572B62F49304C0B78227850
:106CF000581C00F01F009042DBB204D12278013210
:106D000002F01F0222702A4A2A4E08703E20C3EB6E
:106D1000431700FB032340F29F4C306822F817C052
:106D2000C3F8020085F31088EFF3108772B60B7872
:106D30002578581C00F01F00A842DBB204D125784A
:106D4000013505F01F0525703E2505FB0325C3EB26
:106D5000431340F29F4C0870306822F813C0C5F806
:106D6000020087F31088EFF3108772B60B78207853
:106D70005D1C05F01F058542DBB204D1207801308F
:106D800000F01F0020703E2404FB0324C3EB4313D8
:106D900030680D7040F29F4122F81310C4F80200D1
:106DA00087F31088F0BC70478C6F00208D6F002037
:106DB000CC670020BC3804003C2A2DE9F0419646FF
:106DC000044628BF4FF03C0EEFF3108772B61C4EFE
:106DD0001C4B307893F800C0451C05F01F05AC45EE
:106DE000C0B207D193F800C00CF1010C0CF01F0CDD
:106DF00083F800C0DFF858C0C0EB40135B000CEB19
:106E000003080CF8034088F801E082B904F0FD049F
:106E1000802C357006D115F0C3FC0B4A0B4B10606B
:106E200001221A7087F310880120BDE8F0813E230B
:106E300003FB00C07246023018F04AFFE6E700BFCD
:106E40008C6F00208D6F0020BC670020C967002078
:106E5000CC6700200D4B1B68002B01DA0120704726
:106E600010B515F09DFC0A4B1B68C01AB0F5967F53
:106E700003D2084C206810B910BD012010BD15F0D8
:106E80008FFC2368C01AC00F10BD00BF0460002033
:106E90001C660020906F0020044B1B68002BA3BFD2
:106EA000181AB0FA80F040090020704704600020F2
:106EB000022900D8704738B50D46044615F070FC1D
:106EC0000A4B0B4A18600121A01CEB1E10FA83F339
:106ED0001170601810F8012F22B99842FAD1054BB1
:106EE0001A7038BD034B01221A7038BDBC670020F0
:106EF000C9670020C06700202DE9F84F5D4B1B7863
:106F0000642B04460D4612D003FB04F4B4F5C80FFD
:106F100003FB05F515D2584BB5F5C80FA3FB0424A8
:106F2000C4F34F1438D2A3FB0535C5F34F1594B9FC
:106F30008DB9524B1B68002B3DDA00242046BDE87A
:106F4000F88FB5F5C80F2ED24B4BA3FB0535C5F313
:106F50004F154FF6FF74494B1B68002BEDDB15F006
:106F60001FFC474B1B68C01AB0F5967FE5D2454E13
:106F70003368002B77D1AC42204638BF28465FFAF1
:106F800080FA5FFA84FC5FFA85FE000A240A2D0A63
:106F900001274FF004091DE0384B1B68002B4FF60A
:106FA000FF75CADBDBE7354B1B684FF6FF75002B1F
:106FB0002C46C2DBD3E715F0F3FB314B1B68C01A3C
:106FC000B0F5967FB9D2AE462C46AC462846AA46C6
:106FD0002F46A946EFF3108872B62B4E2B49327814
:106FE00091F800B0531C03F01F035B45D2B207D1E8
:106FF00091F800B00BF1010B0BF01F0B81F800B002
:107000000021337069F307010223DFF894903E26D4
:1070100016FB02366AF30F2109EB0603C2EB42129C
:1070200060F317416CF31F6100204FF4186C29F8CE
:1070300012C049F806101C7183F806E0DD71587122
:10704000187215F0ADFB124A124B106001241C702F
:1070500088F3108815F0A4FB0F4B104A1F701060C6
:107060002046BDE8F88F15F09BFB3368C01A002856
:1070700081DA62E7206000201F85EB510460002068
:107080001C660020906F00208C6F00208D6F002008
:10709000BC670020C9670020C8670020C4670020C3
:1070A000CC670020F8B52A4A2A4B18781178884214
:1070B00047D1294C2178A9B9284C2178002940D002
:1070C0002749097800293CD1EFF3108572B6197869
:1070D0001678481C00F01F00B042C9B232D0214ED1
:1070E000214A11E0EFF3108572B619781678481C22
:1070F00000F01F00B042C9B204D11678013606F084
:107100001F061670174E194A18700227C1EB41105E
:107110003E2313FB017140F2823326F810307318BE
:107120001088927870529A7015F03AFB104A114B01
:10713000106001221A7085F310882378013BDBB2BE
:107140002370F8BD1678013606F01F061670C6E7E4
:107150008D6F00208C6F0020956F0020946F0020B1
:10716000B2670020CC670020C4380400C83804008F
:10717000BC670020C96700202DE9F041374A384C30
:10718000277813789F4294B049D005460E4635487B
:1071900008E02378013303F01F032370217813786C
:1071A00099423CD02178C1EB4113C9B210F8137059
:1071B00000EB4303002FECD05A783C2A904628BFBE
:1071C0004FF03C089F2F2DD0872F03D112B19B7811
:1071D0002D2B27D0244A8DF80F703E2303FB01018D
:1071E00013788DF80C3008F10100052342468DF824
:1071F0000D00023104A808F104088DF80E3018F0D3
:1072000067FD5FFA88F3227850270132284631461D
:1072100002F01F05009703AA257006F043F814B08A
:10722000BDE8F081104B8DF80F703E2202FB01018A
:107230001A788DF80C2008F1020001238DF80D005A
:10724000023142460DF111008DF80E308DF810809C
:1072500018F03EFD08F10503DBB2D4E78C6F002087
:107260008D6F0020CC670020226000202DE9F047C0
:10727000EFF3108072B6794C794D23782A78591C37
:1072800001F01F019142DBB204D12A78013202F0F1
:107290001F022A70C3EB4312724B2170812123F825
:1072A000121080F31088EFF3108972B694F800C0C2
:1072B00029780CF1010202F01F028A425FFA8CFC6D
:1072C00004D12978013101F01F012970664F227025
:1072D0003E4607CE4FF0020E4FF03E0818FB0CE87A
:1072E000CCEB4C1C03EB080E40F6877A23F81CA06D
:1072F000B6F800C0B67843F80800CEF80410CEF80F
:107300000820AEF80CC08EF80E6089F31088EFF3F9
:10731000108972B694F800C029780CF1010202F0CD
:107320001F028A425FFA8CFC04D12978013101F0F6
:107330001F0129704D4E227007CE4FF0020E4FF004
:107340003E0818FB0CE8CCEB4C1C03EB080E40F697
:10735000877A23F81CA0B6F800C0B67843F8080076
:10736000CEF80410CEF80820AEF80CC08EF80E60EF
:1073700089F31088EFF3108672B622782978501CB2
:1073800000F01F008842D2B204D12978013101F007
:107390001F0129704FF0020C3E2111FB02C1C2EB0C
:1073A00042122070DFF8D0C040F2876023F812004C
:1073B0005A18BCF804C0386A5850A2F804C086F3C2
:1073C0001088EFF3108C72B622782978501C00F0E8
:1073D0001F008842D2B204D12978013101F01F0187
:1073E000297002263E2111FB0261C2EB4212204E9F
:1073F000207040F2817023F812005A18B86A585071
:10740000B088B179908091718CF31088EFF3108C73
:1074100072B622782978561C06F01F068E42D2B228
:1074200004D12978013101F01F01297002203E2189
:1074300011FB0201C2EB42120E4D267040F2817424
:1074400023F812405A18386BAE88AC7958509680A1
:1074500094718CF31088BDE8F08700BF8C6F00201A
:107460008D6F0020CC670020CC380400DC3804008D
:10747000F4380400FC380400EC380400094A0A4BD4
:107480000A480B4910B5002404701C7014700C706D
:1074900015F086F9074A084B147000F6B8301860EA
:1074A00010BD00BF8C6F0020C86700208D6F0020CA
:1074B000C0670020946F0020906F00202DE9F041FC
:1074C00015F06EF93A4C3B493B4A00F6B8330020C0
:1074D000236008701070EFF3108672B6374B384D8A
:1074E0001A7829788A423AD03649D3B201F1020C8F
:1074F0000F1D05E02A78013303F01F039A422ED0B6
:10750000C3EB431401EB440211F814E0BEF1820F07
:107510004FEA43142FD0BEF1800FEBD192F801E077
:10752000BEF1000FE6D0C3EB431252000CEB020891
:107530000EF1FF3E013258FA8EFE0A4401E0724518
:10754000D8D012F8018FB8F1000FF8D0E41A01F882
:1075500014002A78013303F01F039A42D0D186F336
:10756000108815F01DF9184B18490822C8301A70F8
:107570000860BDE8F08192F801E0BEF1020FB9D9D0
:10758000C3EB4312520007EB0208AEF1030E0332C5
:1075900058FA8EFE0A4401E07245ABD012F8018F12
:1075A000B8F1000FF8D0E41A01F81400D1E700BFD9
:1075B000906F0020C0670020C86700208D6F0020FA
:1075C0008C6F0020CC670020C1670020B8670020C6
:1075D0007A4B1B68002B2DE9F04180F28E80784BAE
:1075E00000221A700CF0C4FB4FF080420346D2F820
:1075F0003814744A08B11078A0B1734913700C782C
:1076000024B9724D2B78002B40F0C280704B1B7850
:10761000002B40F09B806F4C2378002B40F0A9801A
:10762000BDE8F081C907E8D5EFF3108C72B66A4D5A
:107630006A4E29783478481C00F01F00A042C9B275
:1076400004D13478013404F01F043470644C654F65
:1076500028703E20C1EB411E00FB014140F29F48D3
:10766000386824F81E80C1F802008CF31088EFF30C
:10767000108E72B6297896F800C0481C00F01F00E2
:107680006045C9B207D196F800C00CF1010C0CF0AE
:107690001F0C86F800C04FF03E0C0CFB014CC1EBF8
:1076A000411140F29F482870386824F81180CCF8C6
:1076B00002008EF31088EFF3108E72B629783078BE
:1076C00001F1010C0CF01F0C8445C9B204D13078D3
:1076D000013000F01F0030703E2606FB0146C1EB72
:1076E0004111386885F800C040F29F4524F81150D8
:1076F000C6F802008EF310887FE715F051F83A4B78
:107700001B68C01AB0F5967FBFF469AF2C4D374C9B
:107710002B78002B46D02368002B3FF463AF15F085
:107720003FF82368C01A0028FFF65CAFFFF79EFD04
:107730002F4A1378002B3DD0013BDBB21370002B96
:1077400038D015F02DF800F5AF7034E015F028F8BA
:10775000284B1A6840F6C413801A98427FF65BAF34
:1077600000211C4C0846FFF7C7FB2378002B3FF491
:1077700057AF15F015F8204B1B68C01AB0F5966F7F
:107780007FF64EAF00232370BDE8F041FFF76EBDDA
:1077900015F006F8184B1B68C01AB0F5967F88BF25
:1077A0002C7033E7FFF78AFE236801222A70002B32
:1077B000B5D117E70020206014E700BF0460002067
:1077C0008E6F002021600020B2670020C06700207B
:1077D000C8670020C96700208C6F00208D6F0020D3
:1077E000CC670020BC3804001C660020B86700206D
:1077F000C1670020C4670020BC67002000B54FF0BF
:10780000805183B00B6E496E084A09484B40C3F360
:1078100013031021019319F019F9019B054A064839
:10782000102103B05DF804EB19F010B9043904001D
:10783000A86F002014390400986F0020704700BF23
:10784000704700BF704700BF704700BF10B540F2DF
:10785000C4521548154C40F24C5108F09BFC12489C
:107860004FF4827108F09CFC0F48114908F09AFC13
:107870000D48104908F09AFC2046012108F022FF2B
:1078800020460D4A0D4908F023FF20460C4982226C
:1078900008F01AFF2046012108F010FF2046BDE83D
:1078A000104008F019BF00BF50770020D06F0020B3
:1078B000403904005C390400D178020001790200EB
:1078C0007839040010B5044617F0D0F9204610BDF1
:1078D000022913D193B118B9013B12F8010B9BB2E5
:1078E00005280BD1042B09D9D178107901EB01219E
:1078F00000EB002089B280B2FFF7FEBA704700BFEC
:10790000032901D00020704770B51646FAB11D4614
:10791000EBB104461A460021304618F001FA812CDA
:107920001ED00CD8022C14D0122C10D10E2D0ED932
:10793000104B18689B883060B3800F2070BDA32C5B
:1079400005D12F2D03D901233370302070BD0020C5
:1079500070BD232DFBD93046FFF72CF8242070BDD5
:10796000052DF4D9034B18689B883060B38006203E
:1079700070BD00BF703904002DE9F0436A4899B02A
:1079800008F0CCFE10B919B0BDE8F083674D14F0D3
:1079900007FF2B68C01A0328F5D914F001FF644CC7
:1079A000034620682B60FFF7BDF8054610F0C06F56
:1079B0004FF03F024FF0000114BF0127002708A835
:1079C00015F4C00F0CBF88464FF0010818F0A8F955
:1079D0000021B4F90400FFF705F801210346B4F9CA
:1079E00006008DF82030FEF7FDFF00210346B4F9B4
:1079F00008008DF82130FEF7F5FF01210346B4F9A8
:107A00000A008DF82230FEF7EDFF034628468DF878
:107A10002330FFF70DF906462846FFF72FF90643F6
:107A20008DF824602846434EFFF7CAF84249327861
:107A3000B4F91E308DF825000D4242F3030CC5F356
:107A4000004040EA0C10C3F1000314BF02210021E2
:107A5000014301324FEA23298DF830301B23327065
:107A600094F80CE094F80DC0A68B208CA2698DF8D8
:107A700026108DF83D30E18A8DF8319015F0CC63F9
:107A80008DF827E08DF828C0ADF82C60ADF82E00F9
:107A9000ADF832100D923BD00DF11E0107AA0591F1
:107AA0000492B4F914200DF11A03039306A9B4F952
:107AB00012300093CDE90121B4F91030B4F90E2051
:107AC0001E4C284640F2AE31FEF7D6FF2078BDF8B6
:107AD0001E20BDF81C50BDF81A300292461C0195BC
:107AE000009301258DF84100BDF8183026704246FC
:107AF00039460DF142008DF84050FEF783FF08AA89
:107B00003F230121084808F00DFE19B0BDE8F083BD
:107B1000CDE9013300931A4619460DF142008DF864
:107B20004030FEF76FFFEAE7D06F0020CC6F0020F7
:107B3000C4760020E86F002000004044E96F002078
:107B400008B5054A0549064818F01EF8BDE8084082
:107B5000044808F0A5BD00BF00600020497802007D
:107B600024600020D06F00202DE9F04F0746D0F8A8
:107B70000240008B89B08B460104798B9DF84850F8
:107B800002929A4648BFA0F5803004F400130A041C
:107B90000395C4F3405E48BFA1F58031002B40F04F
:107BA0009F80594E594D96ED007A95ED005ADFF8B9
:107BB0007CC1574B57491A68574BD1ED003AD3ED6A
:107BC000007A56489FED564AD0ED006A8CF800E0E6
:107BD00002EB82035B0006EE103AF8EEC65AF8EEAE
:107BE000E77A87EE256A6FF07E03C5EE254A36EE0A
:107BF000236A76EEE46AFDEEC65AFDEEE63A15EE2D
:107C0000909AF8EEE54A994567EE847A13EE90EA89
:107C100036EE646AF8EEE35ACC46B8BF9C4627EECF
:107C2000877A734581ED006A614676EEE56AB8BFF2
:107C30007346FFEE005A7F2967EE857AA8BF7F2141
:107C4000B4EEE57A7F2BA8BF7F23F1EE10FAC0EDEA
:107C5000006A86ED007AC5ED007A08DDF7EE006A6D
:107C6000B4EEE67AF1EE10FA44BF00203060BFEEC9
:107C7000007AF4EEC77AF1EE10FA08DDB7EE007A7A
:107C8000F4EEC77AF1EE10FA44BF00202860BD8AF6
:107C900004F000702E04C4F3406E48BFA5F5803593
:107CA00000284DD01F4E3078002840F0C781DFF803
:107CB00080C0DFF88080DCED007AC8F80050BDEEAF
:107CC000E77A6FF00E0517EE102A9542B8EEC77AE4
:107CD000B8BF15460F2D77EEC77AA8BF0F2536E03F
:107CE000DFF848C09CF80030002B40F08C81064E35
:107CF000064D96ED007A95ED005A0B4ADFF8388074
:107D00001060C8F8001054E7EC6F0020F06F0020FE
:107D1000186000200C7000201C60002010700020F3
:107D20000AD7233CFA6F0020047000200070002066
:107D300018700020FC6F0020087000200000000078
:107D40005FED027ACA4EDFF848C302460546F8885E
:107D500086F800E014F4800F3E89CCED007A4FEAFB
:107D6000E01040F03981F611B52EB5BF4FF0020C8E
:107D70004FF0030C00260126B428C8BF66466001F8
:107D800013EE900A48BF46F0040649EA000948BFCE
:107D9000F6B259EA0202B74802D10278B24211D0D3
:107DA0000022067058468DF818608DF819108DF86D
:107DB0001A308DF81B508DF81C2008F0AFFC0028FD
:107DC00040F0C181A605C4F3C0454FF0000348BF91
:107DD00045F0040514F001020493ADF8143000F0EE
:107DE000EF80282304264FF0030C022101228DF896
:107DF0001030B046CDF804C00B4696464FF005094A
:107E0000A0070ED508A8821810464FF0290A9E46F2
:107E10000A4663466146CDF80480B446C84600F879
:107E200010AC14F004060CD008A800EB02094FF0C7
:107E30004B0A9E460A46019B09F810AC6146CDF8F4
:107E40000480200709D508A800EB020C4FF04E086B
:107E50009E46019B0CF8108C0A46600600F1A38038
:107E6000854A92F80090734660040AD508AAB9F1D1
:107E7000030F1A4414BF29212B21013302F8101CCF
:107E8000DBB27A891104B98948BFA2F580320804AF
:107E900075D5A704A1F5803178D4600540F1A080A4
:107EA000062B00F0A88008A9194451200133DBB249
:107EB00001F8100CE10402D470498A4208DA062B5A
:107EC0000ED008A9194450200133DBB201F8100C80
:107ED000270500F1E58042F6E0618A4200F3E08088
:107EE000B9F1030F00F0E9809DF810108846DFF823
:107EF000A4E1634A9EF8003092F800C057789DF8DC
:107F0000116090789DF8124092F803905B1B18BFA7
:107F100001238C4518BF0123B74218BF01231179F3
:107F20009DF813709DF814C0A04218BF0123B945F5
:107F300018BF012361459DF8159000F0F180049869
:107F4000106005990298918000238EF800508DF8FA
:107F500018508DF81A808DF81B608DF81C408DF834
:107F60001D708DF81EC08DF81F908DF8193008F027
:107F7000D5FB002840F0DE8009B0BDE8F08FA004FA
:107F800004D442F6E060814240F38C81062B2FD06E
:107F900008A818445227013300F8107C6005DBB2B2
:107FA0003FF57EAF1CE0344991F8009008A90A44DF
:107FB000B9F1030F14BF2B21292102F8101C53E73C
:107FC00003264FF0020C01219646B046CDF804C0BE
:107FD0000B464FF0040913E74FF0030C0126CBE6E4
:107FE00026488142FFF65CAFE1043FF568AF63E7E6
:107FF000610540F1AF80E1043FF572AF1F498A424D
:10800000FFF66EAF64E71F4ADFF88C8013681E4EE0
:108010001E4DD6ED006A95ED005AC31A07EE103AD0
:10802000D8F80030CB1A07EE903AB8EEC77AF8EEDF
:10803000E77A37EE267A37EE855A61E6DFF85C801C
:10804000DFF84CC0D8F800009CED006A281A07EE53
:10805000900A02EB4202D200F8EEE76A07EE902A9D
:10806000B8EEE77AC6EE877A77EE867A25E600BF25
:10807000FA6F00201C700020B167002020D1FFFFA4
:10808000F46F002004700020EC6F0020F06F0020DF
:10809000187000201470002008700020FC6F002071
:1080A000062B3FF41DAF08AA1344B9F1030F4FF09C
:1080B0004F0203F8102C7FF417AF7F4B2340002BA7
:1080C0005FD004F48073019314F48023C4F3002A76
:1080D00044D07A4F97F80080B8F1000F64D0019B2C
:1080E000002B6ED0DFF8D89199F80030002B00F00B
:1080F000A780012389F800A03B702EB11222002333
:108100000492ADF814300925A4037FF5EDAE4C239D
:108110000022049398461946ADF814200525E6E69A
:10812000517949457FF40BAF002B7FF408AF09B0BC
:10813000BDE8F08FDDE90201082306AA08F0F2FA93
:1081400009B0BDE8F08F5146052306AA584608F04D
:10815000E9FA37E6E7043FF5C3AEADE6019A002A37
:1081600000F08C80DFF8589199F80080B8F1000F8A
:108170004FD0524F97F800A0BAF1000F78D0984630
:1081800027E04E4FDFF838913B78002B39D04FF085
:10819000000858468DF8188008F0C0FA00287DD1F4
:1081A000387089F800009FE6022358468DF8183091
:1081B00008F0B4FA00283CD1019B002B92D14FF07B
:1081C0000108DFF8FC9099F80030002B61D04FF0E7
:1081D000000A002358468DF8183008F09FFA0190E5
:1081E000002863D00123584606AA032108F09AFA12
:1081F000019B87F8008089F800A0002B3FF474AE43
:108200007BE799F80030002BC1D13B7089F8003032
:108210006AE6012358468DF8183008F07FFA274F98
:10822000C0B997F80080B8F1000F1ED04FF00008D9
:10823000CFE74946012306AA584608F073FABBE780
:10824000012358468DF8183008F068FA8046002857
:108250003FF44FAF012306AA0321584608F062FA03
:10826000B8F1000F7FF445AFDBE7019B002BAAD0EC
:10827000002201233A7089F800303EE70F4F97F84B
:108280000080B8F1000F9CD0DFF834909046924601
:108290009FE787F8008089F800302EE7CDF804804A
:1082A000C2469FE760053FF5FBAD03E687F8008017
:1082B00089F800A021E700BF100001001D70002018
:1082C0001E700020704700BF10B540F6E64215480A
:1082D000154C40F24C5107F05DFF12484FF482718B
:1082E00007F05EFF0F48114907F05CFF0D48104989
:1082F00007F05CFF2046012108F0E4F920460D4A12
:108300000D4908F0E5F920460C4940F2111208F039
:10831000DBF92046012108F0D1F92046BDE81040E4
:1083200008F0DAB95077002024700020243A0400C5
:10833000443A04004D830200918302006C3A040029
:1083400010B5044616F092FC204610BD022913D148
:1083500093B190B91178022918D1013B9BB2013237
:10836000032B09D99178D07801EB012100EB002093
:1083700089B280B2FEF7C0BD70470228FCD11178E7
:108380000229EDD1042BEBD90132EBE7704700BF96
:10839000032901D00020704770B51646DAB11D469A
:1083A000CBB104461A460021304617F0B9FCE01E56
:1083B0001D2810D8DFE800F0180F210F0F0F280F2D
:1083C0000F0F0F0F0F0F0F0F0F0F0F0F0F0F0F0FBD
:1083D0000F0F0F0F0F11002070BD3E2DFBD9012391
:1083E000F375F3763F2070BD2E2DF4D94FF49432FF
:1083F0000E23326033712F2070BD272DEBD930460C
:10840000FEF7D8FA282070BD122DE4D9034B186866
:108410009B883060B380132070BD00BF643A0400B5
:108420002DE9F041694898B008F078F910B918B012
:10843000BDE8F081664D14F0B3F92B68C01A03282B
:10844000F5D914F0ADF9634C034620682B60FEF7B4
:1084500069FB054610F0C06F4FF03F0214BF0127C3
:108460000027002115F4C00F08A80CBF88464FF064
:10847000010817F055FCB4F904000021FEF7B2FA28
:1084800001210346B4F906008DF82030FEF7AAFA60
:1084900000210346B4F908008DF82130FEF7A2FA56
:1084A00001210346B4F90A008DF82230FEF79AFA4A
:1084B000494BA1891A788DF82300561C28468DF85F
:1084C00026201E70ADF82410FEF7B2FB06462846A3
:1084D000FEF7D4FB064328468DF82760FEF770FBB5
:1084E000B4F91E303D4AB4F91C108DF828006E17FF
:1084F0001542C3F1000306F00402C5F3004646EA44
:1085000002068DF8333014BF022200221B122846C7
:108510008DF8343042EA0605B4F91430B4F916C0C7
:10852000B4F91860B4F920208DF82950B4F91A5024
:108530000193B4F912308DF82F10091200938DF8C1
:1085400030108DF831204FEA2C23311212128DF8A1
:1085500032208DF83630B4F90E20B4F910308DF891
:1085600038100DF11E0407A98DF835C08DF839506B
:108570004FEA252C0594049106AC0DF11A054FF431
:1085800087618DF83AC0CDE902458DF83760FEF776
:1085900073FABDF81C00BDF81A30BDF81E20029217
:1085A000CDE900304246BDF81830394610A8FEF734
:1085B00029FA1A2408AA3F23012104488DF85440BF
:1085C00008F0B0F818B0BDE8F08100BF24700020BA
:1085D00020700020C47600203C7000200000404441
:1085E00008B5054A0549064817F0CEFABDE8084027
:1085F000044808F055B800BF00600020C5820200A2
:108600002860002024700020704700BF10B592221F
:108610001248134C40F60D7107F0BCFD0F4840F2B4
:10862000022107F0BDFD0D480E4907F0BBFD0B48C8
:108630000D4907F0BBFD2046012108F043F8204614
:108640000A49562208F040F82046012108F036F881
:108650002046BDE8104008F03FB800BF507700202A
:1086600044700020A83B0400B83B0400103C040008
:1086700010B5044616F0FAFA204610BD2DE9F04F69
:10868000954883B008F04AF810B903B0BDE8F08F00
:10869000924E044614F084F83368C01A0328F4D9C3
:1086A00014F07EF88E4B8F4D1A7830602B6842B1F3
:1086B000DF0606D5013AD2B2102A23F0100340F2A9
:1086C0006C81894A9A43894A65D01278002A0BBF87
:1086D0004FF0010E4FF0080E4FF004084FF0020863
:1086E0000BBF4FF0020A4FF0040A4FF008094FF099
:1086F000010913F0080F14BF7246002203F00101B4
:1087000003F004009E0748BF42EA0A0209B142EAA8
:10871000080208B142EA09021903297B48BF42F066
:1087200010029F0548BF42F02002272901D81E01F0
:1087300001D542F04002697B272901D8180201D5F2
:1087400042F08002590448BF42F480725F0648BF7D
:1087500042F400721E0448BF42F48062980648BF8B
:1087600042F40062D90348BF42F4805213F4003C43
:1087700025D05F49097801390A2920D8DFE811F0AE
:10878000330130012D012A012701240121011E019D
:108790001B0118011D00117823F00D03002900F0C2
:1087A000F180002108460A464FF0080E4FF00208FB
:1087B0004FF0040A4FF00109A4E742F4805213F08D
:1087C000800713D04A49497801390A290ED8DFE8D1
:1087D00011F01001130119011601250122011F01D9
:1087E0001C012B0128010B0042F4805213F4802657
:1087F00013D03F49897801390A290ED8DFE811F0F2
:10880000F60020011D011A0117014D014A0147011F
:10881000440141010B0042F4805213F4807013D0E4
:108820003349C97801390A290ED8DFE811F0270148
:10883000240121011E011B011801150112010F0164
:108840000C010B0042F48052C3F3403EC3F3802876
:10885000C3F30039C3F3C023BCF1000F0DD024498A
:1088600009780C2900F01C810D2900F02B810E29BC
:1088700000F09C800F2908BF23466FB11C4949783E
:108880000C2900F014810D2900F01A810E2900F046
:108890008B800F2908BF234666B115498E780C2EB0
:1088A00000F000810D2E00F00F810E2E7AD00F2ED9
:1088B00008BF2346F8B10E49C9780C2956D00D29B6
:1088C00000F0F7800E2915D00F2914D1BEF1000F4A
:1088D00017D001231AE000BF447000204070002030
:1088E000B0670020C476002080010600AD6700203C
:1088F0000C600020A146BEF1000F37D1002B00F024
:10890000EB80B8F1000F0CBF02230323B5F904007C
:10891000ADF8002000218DF80230FEF763F8012148
:108920000346B5F906008DF80330FEF75BF8002129
:108930000346B5F908008DF80430FEF753F801211D
:108940000346B5F90A008DF80530FEF74BF8002113
:10895000044608236A4668488DF806408DF80710DB
:1089600007F0E0FE03B0BDE8F08FF046002BB0D179
:10897000B8F1000F00F0AA80B9F1000F0CBF00237E
:108980000523C3E708460A464FF0010E4FF00408DE
:108990004FF0020A4FF00809B4E6584951F8222076
:1089A00013438EE6A14685E7A14675E7A14664E735
:1089B00042F4007203E742F4807200E742F400627E
:1089C000FDE642F48062FAE642F02002F7E642F069
:1089D0001002F4E642EA0E02F1E642EA0902EEE68D
:1089E00042EA0A02EBE642EA0802E8E642EA080244
:1089F00013E742EA0802F9E642EA0A02F6E642EA28
:108A00000E02F3E642EA0902F0E642F40062EDE605
:108A100042F48062EAE642F02002E7E642F0100209
:108A2000E4E642F40072E1E642F48072DEE642F0EF
:108A30001002F2E642EA0E02EFE642EA0902ECE632
:108A400042EA0A02E9E642F40072FDE642F480726C
:108A5000FAE642F40062F7E642F48062F4E642F09D
:108A60002002F1E642F01002EEE642EA0E02EBE6E8
:108A700042EA0902E8E642EA0A02E5E642EA0802B8
:108A8000E2E642F40072C8E642F48072C5E642F4BF
:108A90000062C2E642F48062BFE642F02002BCE619
:108AA000A646EAE600283FF461AFA64604E7A646DC
:108AB000F2E6BEF1000F7FF458AF83B1032325E740
:108AC000A046E9E6A046D8E6A046F3E6B9F1000FD5
:108AD0000CBF0023072319E7B8F1000F05D0B9F147
:108AE000000F0CBF0423052310E7B9F1000F0CBFE2
:108AF000082306230AE700BF44700020CC3B040093
:108B000008B5054A0549064817F03EF8BDE8084093
:108B1000044807F0C5BD00BF0060002009860200C0
:108B20002C60002044700020704700BF10B5044640
:108B300016F09CF8204610BD30B542F209029BB0F9
:108B40003B483C4C3C4D40F27E5107F023FB3848FB
:108B500040F2122107F024FB3849354807F022FB88
:108B60003749334807F022FB364B374A1C603749F8
:108B70005A6047F287044FF480729960DD60FF21EC
:108B80001C82334817F0CCF8324901A80EF0B6FA2F
:108B9000314901A800220EF06BFB00BB2D4901A852
:108BA0000EF0ACFA2D49002201A80EF061FB00BBCB
:108BB0002B48012107F086FD2A4A2948002107F0A9
:108BC00087FDCB222849264807F07EFD0121244855
:108BD00007F074FD224807F07FFD1BB030BD1C4933
:108BE0004FF4807201A80EF05FFB01A80EF07CFB31
:108BF000D4E70322694601A80EF056FB032803D0F0
:108C000001A80EF071FBD3E79DF80030012BF7D1DE
:108C10009DF802209DF801101448541F022998BFA6
:108C20000B461349192C88BF0A2202700B70E7E724
:108C3000507700200887700008877008903C040077
:108C4000A43C04005C700020088008877000088045
:108C5000A0720020488D0020B43C0400C43C0400F5
:108C600084720020F98F0200703D04003060002003
:108C700031600020F0B59D4B9D491B780A6813B107
:108C8000D40600F1EF809B4B93439B4B1B7800F085
:108C9000F580002B15BF022501250126022615BFF0
:108CA000082704274FF0040C4FF0080C12F00803BB
:108CB00018BF2B4612F0020F02F0010E02F004045E
:108CC00000D03B43BEF1000F01D043EA0C0304B1D6
:108CD0003343140348BF43F4800394050C7B48BF1F
:108CE00043F04003272C45D8140143D44C7B272C58
:108CF0003DD814023BD4540648BF43F400735404D7
:108D000048BF43F48073140448BF43F400639406DF
:108D100048BF43F48063D40348BF43F480535405F1
:108D200048BF43F48033940448BF43F40033140530
:108D300048BF43F48023D40448BF43F40023940382
:108D40001DD56E4C2478013C0E2C18D8DFE814F0A9
:108D5000A80051014F014D014A0147014401410161
:108D60003E013B013801350132012F01150043F06E
:108D70008003C0E743F40003B8E743F480231406FC
:108D800017D55E4C6478013C0E2C12D8DFE814F045
:108D90000C010A010801060103010001FD00FA00AF
:108DA000F700F400F100EE00EB00E8000F0043F4E0
:108DB0008023540310D5514CA478013C0E2C0BD8C1
:108DC000DFE804F0CBC9C7C5C2BFBCB9B6B3B0AD0C
:108DD000AAA7080043F48023D20510D5474AD278C9
:108DE000013A0E2A0BD8DFE802F0918F7E7C79766B
:108DF00073706D6A6764615E080043F48023404CC1
:108E000083701A0A62F07F02C270257805701B0C0D
:108E1000912203714270B1F90420B1F906301211A8
:108E200002F500621B1103F50063161246EA0316F1
:108E30001B1142718671C371B1F90820B1F90A3072
:108E4000121102F500621B1103F5006311120135C6
:108E500041EA031125701B110924027241728372C9
:108E6000C472F0BD013BDBB2102B22F010023FF6C2
:108E70000AAF244C54F823301A4304E7002B15BFE3
:108E8000012602260827042715BF4FF0040C4FF0D7
:108E9000080C0225012522F00F0218BF002318E755
:108EA00043EA0C036BE743F40023A8E743F4803361
:108EB000A5E743F40033A2E743F480539FE743F46C
:108EC00000739CE743F4807399E743F4806396E76B
:108ED00043F4006393E743F0400390E743F48003D7
:108EE0008DE72B438BE7334389E700BFB067002052
:108EF000C476002080010600AD6700200C600020D1
:108F00009C720020E83C04003B4378E743EA0C03F2
:108F100075E743F400235FE743F480335CE743F4F1
:108F2000003359E743F4805356E743F4007353E7A3
:108F300043F4807350E743F480634DE743F40063E8
:108F40004AE743F0400347E743F4800344E72B43F9
:108F500042E7334340E73B433EE743EA0C033BE74A
:108F600043F4002325E743F4803322E743F400333E
:108F70001FE743F480531CE743F4007319E743F4FD
:108F8000807316E743F4806313E743F4006310E74C
:108F900043F040030DE743F480030AE72B4308E75F
:108FA000334306E73B4304E743EA0C0301E743F49A
:108FB0000023E4E643F48033E1E643F40033DEE6E5
:108FC00043F48053DBE643F40073D8E643F4807344
:108FD000D5E643F48063D2E643F40063CFE643F082
:108FE0004003CCE643F48003C9E62B43C7E6334392
:108FF000C5E63B43C3E600BF022900D07047002B03
:10900000FCD02DE9F043144693B048B180280FD02E
:10901000012835D0102800F0D18113B0BDE8F083CD
:1090200014F8010B013B80289BB2F1D1002BF4D046
:109030002478012C00F0BC80022C01D0032CECD150
:10904000B34EB44B35781B78013505F007059D42CA
:10905000E3D033783078B04F9B014FF040094FF0A8
:109060000108812109FB0080F95438443F22002186
:1090700016F056FE3378357009FB0383FC54CCE7B9
:10908000092BCAD9A2782679A179207AA34D520852
:1090900006F03F06490800F03F00B2422F8838BF73
:1090A0003246814238BF0146B7EB422F4FEA422099
:1090B0004FEA41219A4A02D116888E4205D0019387
:1090C00028801180FDF718FF019B677A019302AD9C
:1090D0003F2200212846A3F10A0616F021FE284669
:1090E000FFF7C8FD7A1E019B8DF81570B6B2202AD5
:1090F00028D8DFE812F03F012D01210002012700EE
:109100002700270027002700270027002700270027
:1091100027002700C5009000270027002700270010
:109120002700270027002700270027002700270007
:109130002700270027008C0026B1A37A302B01D10D
:10914000784A137080238DF81430714F714B3E783C
:109150001B78013606F007069E423FF45EAF3B786F
:109160006D4C38789B0104EB80102121E1540130D3
:109170003F22002116F0D4FD3B7804EB8314013428
:109180000DF1380EAC46BCE80F00F445206061607C
:10919000A260E360654604F11004F3D107CD3E7090
:1091A0002E88AB78A37320606160A260A68134E74B
:1091B0005D4B574F93E8070002AD2B4603C3397848
:1091C00054481A700131037801F007069E423FF4BB
:1091D00024AF3B783878DFF840819B014FF040099D
:1091E00009FB0040812108F803103F220021404480
:1091F00016F096FD3B783E7003CD09FB034408EB67
:1092000004032A7848F8040059601A7205E7A0237D
:109210008DF8143099E7042E94D9A17BD4F80A2054
:10922000A3F10F0080B200298CD000288AD0C2F5AB
:109230000046A2F5004301390F363C4F3444184430
:1092400053FA81F24FF0000C01E098420CD0FF2B52
:1092500006D8E15CDE5D8E421CBFD9554FF0010C93
:109260009A4203F10103F0D1BCF1000F3FF46AAF61
:109270002F4B01221A7013F093FA2E4B186061E7FE
:10928000042E7FF65FAFA37BD4F80A70CDF816707A
:109290001D2B1E464FF0900228BF1D268DF81A6028
:1092A0008DF81420002B3FF450AF2348234A244963
:1092B000A7F5C143A7F5C04C02EB030E074403EB2F
:1092C00001080DF11A00ACF1200300220AE01D494B
:1092D000595C00F8011F0132D4B2A64203F1010328
:1092E0007FF633AF172BF2D9A3F11D01112900F23C
:1092F0008B8015496144895CEBE78323134A8DF821
:1093000014304FF47F43CDF81620ADF81A301CE727
:10931000817200208072002080700020A2730020E3
:10932000A07300207C700020D43C0400A0720020B8
:109330007470002078700020A0F2FF1F443D0400EC
:10934000443D04002C3D04001F70002000CC00EEC2
:109350003E4B3F4AD8681C8ACDF81A00822140F261
:109360000113ADF81E408DF81410CDF81620ADF89D
:109370002030EAE6002E4FD0A37A012B55D0354C91
:10938000354A022B08BF14460FCCCDF81600CDF895
:109390001A10CDF81E2007CC81262788CDF8223060
:1093A000A378CDF82600CDF82A10CDF82E20ADF800
:1093B00032708DF834308DF81460C6E6082B7FF6D5
:1093C0002CAEA3782079A179227A244D5B0800F095
:1093D0003F00490802F03F0283422C8838BF034611
:1093E000914238BF1146B4EB432F1D4A4FEA432048
:1093F0004FEA412103D113888B423FF40EAE2880FF
:109400001180FDF779FD08E6A3F130010C2905D89C
:1094100014496144895C5CE70E4CB5E7A3F1600137
:10942000172904D81EF8021053E70F4CACE7A3F13C
:109430007801112902D818F802104AE7A3F5FF5164
:10944000FF2994BFB95CFF2143E700BFD43C04006F
:10945000034803027C3E04005C3E0400A27300202B
:10946000A07300204C3E04003C3E040008B5054AB1
:109470000549064816F088FBBDE80840044807F097
:109480000FB900BF00600020298B0200346000206B
:109490008472002010B5134A134B12781B781349BD
:1094A00013489AB001248DF801208DF802308DF810
:1094B00000400DF015FD0E4901A80DF01FFE0B49EF
:1094C000224601A80DF0D4FE08B91AB010BD03223F
:1094D000694601A80DF01EFD01A80DF005FF1AB0A8
:1094E00010BD00BF3160002030600020C43C04008B
:1094F000488D0020F0B590489BB007F00FF9002888
:1095000000F0BA808D4C2378002B40F0CB808C4C3F
:109510008C4B22781B789A4240F0B0808A4B1B78A3
:10952000302B40F0A980894B1B78022B00F0DE80A5
:10953000012B0CBF08250F25854C13F031F923684A
:10954000C01AA842C0F0988013F02AF900210346FF
:109550003F2201A8236016F0E3FB01A8FFF78AFB76
:109560007C497D4BB1F918C0B1F91640B1F91A70B8
:109570001E78B1F91E50BCF1000FB8BF0CF1030CFE
:10958000002CB8BF0334A410002FB8BF03376442C7
:109590000A2E4FEAAC0C24B24FEAA70700F0B280C3
:1095A00016FB05F5B5F5A02F80F2A2806B4B9D420E
:1095B000C0F2BD806A4B83FB0523ED17C5EBA30505
:1095C0005FFA85FEC5F307258B8B5B4213FB06F321
:1095D000B3F5A02F80F29380604A9342C0F2A4803A
:1095E0005F4A82FB0302DB17C3EBA203D8B2C3F3CB
:1095F00007230A8C12FB06F2B2F5A02F7CDA57493A
:109600008A42C0F28E80564E86FB0216D117C1EBFD
:10961000A601CAB2C1F30721002660F3070663F36F
:109620000F2662F3174661F31F664348ADF810C07A
:1096300001AA3F233021ADF81240ADF814708DF827
:1096400016E08DF81750ADF81CC0ADF81E40ADF80F
:1096500020708DF822E08DF82350ADF828C0ADF8C9
:109660002A40ADF82C708DF82EE08DF82F5006961C
:1096700009960C9607F056F81BB0F0BD2278394BCE
:109680002D48910103EB8212595C01323F2307F010
:1096900049F80028F0D02378013303F00703237042
:1096A0001BB0F0BD13F07CF82F4B1B68C01AFA28D2
:1096B0007FF62DAF00232D492D4823700DF010FCAF
:1096C0002B4901A80DF01AFD284901A801220DF02F
:1096D000CFFD00283FF41BAF26494FF4807201A84C
:1096E0000DF018FC01A80DF0FFFD10E7042523E79D
:1096F0007F254FF0FF0E67E77F21FF228CE77F2356
:10970000FF2076E78B8BB1F920105B42D8B2CAB24A
:109710005FFA85FEC3F30723C1F30721C5F30725CD
:109720007AE78021002277E78023002061E7802507
:109730004FF0000E48E700BF8472002074700020D4
:1097400080720020817200207C7000203160002037
:1097500070700020C476002030600020F7FFFAFF10
:10976000676666668070002078700020B43C040054
:10977000488D0020A0720020704700BF0120704774
:109780000249034A00230B7013707047F0730020E6
:10979000E4730020481E18BF01207047704700BFC7
:1097A000F8B51D491D4D1E4A1E4F1F4E1F4C00236C
:1097B0000B802846138040F25E4140F28E2206F074
:1097C000E9FC284640F2151106F0EAFC2846184943
:1097D00006F0E8FC2846394606F0E8FC39463046F3
:1097E00006F042FE3146284606F04CFD204611495F
:1097F00006F03AFE2046022106F062FF20460E499E
:109800004D2206F061FF2046012106F057FF204659
:10981000BDE8F84006F060BFCA7300205077002012
:10982000C8730020A83C0400E8730020CC7300201B
:10983000D43E0400E03E0400803F04002DE9F04FD8
:10984000AE4B1A78D1F8023085B00D4612B1DC0665
:1098500000F1CC81C3F340345F0548BF44F00204FB
:10986000DA0448BF44F004041F0548BF44F008046C
:109870005A0648BF44F010045F0448BF44F0200477
:10988000DA0348BF44F480641F0348BF44F4807483
:109890009A0548BF44F400741F0448BF44F04004D4
:1098A0009A06974A127848BF44F08004002A0BBFFA
:1098B0004FF480414FF400414FF400504FF480507A
:1098C0000BBF4FF480564FF400564FF400424FF454
:1098D0008042DF0748BF34439E0748BF0443580710
:1098E00048BF0C43190748BF14439F0306D5854A58
:1098F0001278013AD2B20E2A40F273811E0606D5C2
:10990000804A5278013AD2B20E2A40F26581580359
:1099100006D57C4A9278013AD2B20E2A40F257819B
:10992000D90506D5774BDB78013BDBB20E2B40F235
:109930004981B5F80AB0B5F80C80EF892E8AB5F8E0
:1099400006A0B5F808901BF4004F18BFABF5803B9C
:1099500018F4004F18BFA8F580383A0448BFA7F59F
:109960008037330448BFA6F580360AF0F9F920B1F4
:10997000654B1978002940F0E1802E8BD5F8023034
:109980006D8B300448BFA6F5803603F4001229041D
:10999000C3F3405C48BFA5F58035002A40F09B80AA
:1099A0005A4C5B48D4ED006A90ED005A59495A4A26
:1099B0005A4E1268D6ED003A594F81F800C002EBBA
:1099C0008202520007EE902AB8EEE77A97ED006A1D
:1099D000544A9FED554AD2ED007AC6EE875A6FF091
:1099E0007E02C5EE074A75EEA35A36EE647ABDEEE6
:1099F000E56AF8EEE77A16EE105ABDEEC76A9542B0
:109A000016EE101A06EE105AF8EEC64A06EE101AB6
:109A100067EE847AB8EEC66A75EEE45AAC46B8BF13
:109A2000944637EE466A8A4227EEA67AC6ED005A79
:109A30006646B8BF0A46FFEE006A7F2E67EE857A5B
:109A4000A8BF7F26B4EEE67A7F2AA8BF7F22F1EE78
:109A500010FA87ED006A84ED007AC0ED007A08DD27
:109A6000F7EE006AB4EEE67AF1EE10FA44BF002792
:109A70002760BFEE007AF4EEC77AF1EE10FA08DD47
:109A8000B7EE007AF4EEC77AF1EE10FA44BF002484
:109A90000460580E00F00200C3F38053294343EAE8
:109AA0000003224902D10878984211D000242048AE
:109AB0000B708DF808308DF809608DF80A208DF84C
:109AC0000B408DF80C4006F029FE002840F0B580D0
:109AD00005B0BDE8F08F0F490A78002A40F0928067
:109AE0000A4C0B48D4ED006A90ED005ADFF848E0CC
:109AF000104FCEF800603D6059E700BFB06700200E
:109B0000AD6700200C600020E47300201474002076
:109B1000187400201D740020186000202874002094
:109B20002C7400201C6000200AD7233C1C740020E9
:109B3000CC730020247400202074002000200AF040
:109B4000FBFF00287FF419AF4FEAEA1C4FEAE9193E
:109B5000DFF814A13D4AAAF80240BCF1FF0FA8BFEC
:109B60004FF0FF0CB9F1FF0FA8BF4FF0FF094FF402
:109B7000A05411788AF804C08AF80590AAF806B0B3
:109B8000AAF80880AAF80A70AAF80C60CAF80E00B1
:109B9000AAF81200AAF8004001900AF07BFF019B8E
:109BA00000283FF4EAAE29491846097852461423A2
:109BB0000AF090FF00287FF4E0AE244B19780AF0F9
:109BC00079FFDAE6224A32F813301C43B1E6204925
:109BD00031F812201443A3E61D4931F81220144332
:109BE00095E61B4931F81220144387E6013AD2B2B8
:109BF000102A23F010033FF62DAE164951F822200B
:109C0000134327E6DFF864E0134FDEF80020134C1F
:109C10001348D4ED006A90ED005AB21A07EE102AEC
:109C20003A68AA1A07EE902AB8EEC77AF8EEE77AF1
:109C300077EE266A37EE855A5BE72146052302AAAE
:109C4000084806F06FFD05B0BDE8F08FE473002012
:109C5000403F0400FC3E04002474002014740020E3
:109C600018740020CC730020F473002020740020AE
:109C700010B5044614F0FAFF204610BD10B50D4C87
:109C800023889BB21BB90C4B1B889BB243B112F0CB
:109C900087FD0A4B1A6840F6C413801A984200D810
:109CA00010BD054B0021198008462180BDE81040F9
:109CB000FDF722B9C8730020CA730020A4730020E6
:109CC000F8B5174E34788C4201D00120F8BD042B32
:109CD000054605D9134B1A7812B95A78082A07D0C5
:109CE000104A2146284620230AF0F4FE0120F8BD40
:109CF000DA781B790C4C0D4F02EB022203EB0323A5
:109D000092B29BB23A80238012F04AFD084B186051
:109D10003888218880B289B2FDF7EEF83478DFE721
:109D2000F0730020A8730020CA730020C8730020BD
:109D3000A47300202DE9F84F4B79FF2B03D18B79C9
:109D40005D2B0D4603D000242046BDE8F88FCB796B
:109D5000012BF8D10C78DFF86CA00E1901EB02088A
:109D6000B0458146A4B288BF4FF0000B05D81BE078
:109D70003E443C44B045A4B216D92B795B4513D977
:109D800073783778052BF3D1314648460AF05EFEEA
:109D9000B378DA0916BF094A8AF8003013700BF15C
:109DA00001025FFA82FBE3E79AF800100029CBD0AA
:109DB000034A484620230AF08DFEC5E7E4730020DD
:109DC000A8730020F0730020002A7BD0272B02D834
:109DD0000023184670472DE9F0413C4B93F81C7165
:109DE00093F81E8193F81D618AB0054608F10101C0
:109DF000781C1446721C83F81C0183F81D2183F81B
:109E00001E1127220021684615F08AFF95F804E00C
:109E1000DFF8BCC08DF8027040F2094311272125FC
:109E200040F201102521142246F080068DF808E04A
:109E3000ADF800304FF0130E0823CDF804C08DF8B4
:109E4000097040F2075C03278DF80A50ADF80C004A
:109E5000202540F201708DF80E108DF8102005219C
:109E600042F203028DF80F608DF81C608DF81D70B2
:109E70008DF816808DF823806E468DF815E08DF8EC
:109E800017308DF82730ADF81AC08DF81E50ADF898
:109E900020008DF82210ADF824200DEB0507354683
:109EA0000FCDBD4220606160A260E3602E4604F1E8
:109EB0001004F4D103CE28232060184661600AB054
:109EC000BDE8F08128231846704700BF5077002076
:109ED00002FF5D010123037000487047603F0400EA
:109EE00008B5074A0749084815F04EFE074B084ACF
:109EF0001A6000221A71BDE80840064806F0D0BB7F
:109F0000006000209D97020038600020E873002068
:109F1000F83E0400CC73002001207047704700BF5A
:109F20002DE9F8432448254F41F2043242F6DE0180
:109F300006F030F9224B1B78002B3AD13A7840F2E8
:109F4000132140F21123032A18BF19461A481D4C49
:109F50001D4E1E4D06F024F91D49174806F022F942
:109F60001C49154806F022F939781B4B1B4A032976
:109F700040F291170EBF984690464FF4BA7704F11D
:109F8000600920463A46414606F09EFB55F8042BF0
:109F900056F8041B204606F09BFB2046012106F0E4
:109FA0008DFB2046183406F097FB4C45E9D1BDE8FF
:109FB000F88340F21221C9E750770020B1670020F2
:109FC000AE6700203C740020EC430400FC43040016
:109FD000F83F04000840040058420400E440040034
:109FE00008B5044B01221A7012F0DAFB024B18601C
:109FF00008BD00BF347400209C74002010B50446D6
:10A0000014F034FE204610BD032938B515D11C4686
:10A010000E4B1B7815469BB10D49B1F86621002AFD
:10A0200008BF3F22944228BF1446284601F2271158
:10A03000224615F04DFE204638BD0024204638BD8E
:10A0400012F0AEFB034B1860E6E700BFB1670020DB
:10A0500044660020387400202DE9F0410E46154674
:10A060001C4609F085FE60B9184F3B685BB9184F74
:10A070003868032805D8174A5A2303FB00231B7EA0
:10A0800073B9BDE8F08112F08BFB3B68C01A40F257
:10A09000DB539842F5D90E4F38680328EBD9F0E727
:10A0A000DFF8348000EB400008EBC00006F036FB20
:10A0B0000028E6D0386800EB400008EBC0002346DB
:10A0C0002A463146BDE8F04106F02CBB3074002032
:10A0D00004600020446600203C7400202DE9F0411B
:10A0E000844C237884B0002B77D1834D09F040FE57
:10A0F0002B78044613B1002800F0BD802C7009F0C5
:10A1000037FE044640B97D4D2868002807DA032849
:10A1100056D97B4B00221A7004B0BDE8F08112F0D2
:10A120003FFB784B1B68C01AB0F5967F80F0A88083
:10A130002B68032BF0D8744F182000FB037006F037
:10A14000EDFA04460028E7D0704B6D4E1B68002BDB
:10A1500000F09B806E4A12689B1A002BC0F295801B
:10A160003378A34240F09480002CD5D0694C12F093
:10A1700017FB2368C01AB0F5FA6FCDD3664B674E54
:10A1800093E8070001AB83E80700327852B13278D8
:10A19000143A5F2AA8BF5F22192AB8BF1922524277
:10A1A0008DF80C20286800EB40001A467B210C2318
:10A1B00007EBC00006F0B6FA12F0F2FA2060ABE747
:10A1C000514F00EB400007EBC00006F0A7FA002853
:10A1D000BAD14B4B00221A709EE712F0E1FA504BB5
:10A1E0001A6841F28833801A984202D900232370FA
:10A1F0007BE709F0BDFD064600287FF476AF3F4DB2
:10A20000286803283FF671AF3F4F00EB400007EB93
:10A21000C00006F083FA00283FF467AFDFF808813A
:10A2200012F0BEFAD8F80030C01A0E287FF65DAFE3
:10A2300012F0B6FA2B682278C8F80000012A03EB66
:10A2400043030CBF0A256FF0090507EBC30001AA01
:10A25000052340218DF80460ADF806608DF8086094
:10A260008DF8055006F05EFA2378012B9CBF5E1C2A
:10A27000F6B2267039E712F093FA2A4B18603DE7E0
:10A28000286803283FF645AF9AE73378A3421AD0EF
:10A29000A4B9DFF89880012328688DF8043000EB1A
:10A2A0004000012301AA792107EBC00006F03AFA29
:10A2B000347012F075FAC8F800002DE7DFF86C80F2
:10A2C00093B10223E8E7002C3FF426AFDFF85C806F
:10A2D00012F066FAD8F80030C01A40F2ED23984226
:10A2E0007FF644AF3378EBE712F05AFA084B186068
:10A2F0000223D1E734740020B174002004600020F0
:10A30000B07400201C6600203C74002038740020CB
:10A31000A4740020AC740020D84004008A76002089
:10A320009C74002030740020A0740020A8740020C9
:10A33000032938B514D11C460D4B1B78154693B133
:10A340000C49B1F80C21002A08BF3F22944228BFD3
:10A3500014462846CD31224615F0BAFC204638BDB9
:10A360000024204638BD12F01BFA034B1860E7E7C3
:10A37000B16700204466002038740020032938B5F6
:10A3800014D11C460D4B1B78154693B10C49B1F8FE
:10A39000B220002A08BF3F22944228BF1446284614
:10A3A0007331224615F094FC204638BD0024204627
:10A3B00038BD12F0F5F9034B1860E7E7B1670020EC
:10A3C0004466002038740020032938B514D11C4697
:10A3D0000D4B1B78154693B10C49B1F85820002A53
:10A3E00008BF3F22944228BF14462846193122460E
:10A3F00015F06EFC204638BD0024204638BD12F012
:10A40000CFF9034B1860E7E7B167002044660020EE
:10A41000387400202DE9F04182B00E4615461C46E6
:10A4200009F0A6FC30B9304F3B68E3B92F4F3B68C9
:10A43000032B02D902B0BDE8F0812D4A1278FAB997
:10A44000DFF8BC80D8F80020002A42D1294A03EB6B
:10A45000430302EBC30241230093304611464023DD
:10A46000FDF782FBE6E712F09BF93B68C01A40F269
:10A47000DB539842DED91D4F3B68032BDAD8DCE76B
:10A48000032AE3D01DB91C4B1B78002BD2D13868AE
:10A490001A4A5A2303FB00231B7E002BCAD0154DFA
:10A4A00000EB400005EBC00006F038F90028C1D0F1
:10A4B0003868631EDBB22D2B00EB400005EBC000BB
:10A4C00028BF2D23721C452102B0BDE8F04106F0E3
:10A4D00029B912F065F9D8F80030C01A41F657339F
:10A4E0009842CFD93B68B1E7307400200460002067
:10A4F000B16700203C7400203C60002044660020CE
:10A500003874002038B5074A07490848084C15F048
:10A510003BFB04F160052046183406F0C1F8AC425C
:10A52000F9D138BD006000201D9F0200406000206E
:10A530003C7400202DE9F04F022985B08046154675
:10A540001C467CD0032977D1002B75D0012B88BF06
:10A5500092F801B0167898BF4FF0000B022B1F46FF
:10A5600038BF0227023FBAB286F080030292092B5D
:10A5700005F10202039240F2A480012800F0E3807A
:10A58000C04805F05BFB502800F3BD80DFF82C834A
:10A590004FF03F0940464A460021A8F1730415F0E8
:10A5A000BFFB0023832EA4F8B23000F0918106F1A6
:10A5B0005E03DBB2122B00F25581A6F1A203122B2F
:10A5C00000F25081DFE813F01D0105014E014E013C
:10A5D0004E014E014E014E014E014E014E012E0123
:10A5E00013004E014E014E014E014E01EF00029B41
:10A5F000002B00F0D481AB78002B00F03782A24D05
:10A60000A24A012B18BF154684F87530AE211423D9
:10A6100084F874303C2284F873109D48002115F0B2
:10A620007FFB284616F06CFA29460246984815F03A
:10A630004FFB3F23A4F8B23005B0BDE8F08F80F0A7
:10A640008009B9F1090F59D9924F3E68002E4AD1BD
:10A65000B9F1060F14D8002C40F05881894805F054
:10A66000EDFA5028E8DD8C498648009443460122E3
:10A6700012F026F8834805B0BDE8F04F11F0B0BFE6
:10A68000804805F0DBFA5028D6DD83497D480094E8
:10A690004346012212F014F8002CEBD0013C15FACD
:10A6A00084F46E1E05F10D08764F7C4D16F8012FCF
:10A6B0002946384612F004F8B442DBD0B045F5D153
:10A6C000D8E712F06DF8764BB8F1010F18607FF4FF
:10A6D00057AF012C7FF654AF822E3AD1029B9B4597
:10A6E00037DCC24637E012F05BF83E68801B40F270
:10A6F000DB56B0428CBF00260126A9E712F050F8C5
:10A70000674B1860A0E74346CDE9006B65495D489B
:10A71000DFF88891DFF86C81012211F0D1FF013C54
:10A7200015FA84F46F1E05F10D0A17F8012F49463A
:10A73000404611F0C5FFBC4201D05745F5D1514804
:10A7400011F04EFF22E79F2E00F0BC80012C7FF617
:10A7500017AF4FF0000A4F4F3B68002B40F02281AB
:10A7600099460120FCF798FB00283FF409AFBAF1A5
:10A77000000F40F07D81029B9B45CCBF5FFA83F9BF
:10A78000D946BBF13C0F00F2B3814A46A91C3046C2
:10A79000FCF712FBBAF1000F3FF4F2AE5946A81CC9
:10A7A000FCF786FBECE611F0FBFF3F4B3C4A1B68D5
:10A7B00010600122B421934284F8731084F874204D
:10A7C00000F0FD8001223F2384F87520A4F8B23008
:10A7D00032E7364B94F872100022A32518205A60F5
:10A7E000C4F875209A60DA601A615A6184F873506F
:10A7F00084F87400002940F0F2803F23A4F8B230BE
:10A800001AE7BBF1170F03D9029B172B00F24C81FB
:10A81000A22100223F2384F8731084F87420A4F846
:10A82000B23009E7029B002B40F08380DFF8908074
:10A830001F4E204D204F98F800203B78367828781E
:10A8400084F87520AD21042284F876303F2384F803
:10A85000776084F8780084F8731084F87420A4F882
:10A86000B230E9E6029B84F8736084F874B0002B80
:10A87000C3D03C2B1A4603990C4828BF3C2215F044
:10A8800027FABAE734770020A86F002020400400A0
:10A89000BA660020307400203C4004005840040098
:10A8A000387400208440040004600020B966002051
:10A8B000406600200860002041660020B766002046
:10A8C00021660020FCF70CFA012C3FF642AF57E658
:10A8D0009B4B84F8736019685A68C8F802109E6828
:10A8E000DD681969187EC4F879205A69A4F8B29015
:10A8F0001923C4F87D60C4F88150C4F88510C4F8E9
:10A90000892084F88D0084F8743095E60120FCF7E6
:10A91000C3FA002873D18B4805F090F950287FF7CF
:10A920008BAE8949009443460122864811F0C8FE47
:10A93000B4E6AB78DFF86482002B14BF012200225A
:10A9400088F8002000F08C80804E01233370029B39
:10A95000012B00F0DF80EB78002B08BF3C237C4DFF
:10A960007C4F2B7001233B7011F01AFF7A4A7B4B0E
:10A97000106098F800C07A4A7A480021196059603E
:10A980009960D960196159618C4508BF02462B78DE
:10A990000093337874496B4811F092FE4BE7734D86
:10A9A000012331E611F0FCFE3B6840F2DB59C01A8E
:10A9B00048458CBF4FF000094FF00109D1E66C4BC0
:10A9C0001B78002B7FF4FEAE11F0EAFE694B1B688A
:10A9D000C01AB0F5FA7FBFF4F5AE0222F3E61A46CC
:10A9E00052F81B1DD66850689568DE60C4F8751073
:10A9F00058609D605069116958611961FDE65E4BB0
:10AA00001B78002B71D15D4F3B68002B83D011F078
:10AA1000C7FE3B68C01A41F6573398423FF67BAFFA
:10AA2000002E7FF478AFFCF715FA00287FF473AF9F
:10AA30003C2C224628BF3C22D2B229464046FCF795
:10AA4000BBF9B8F1820F7FF466AF21462846FCF7C8
:10AA50002FFA3C4805F0F2F850287FF7EDAD60E79B
:10AA60003C4F404A394E3A4D3B7090E7444DCBE560
:10AA7000414B1B78002B4AD1404F3A68002A3FF4E3
:10AA80007FAD11F08DFE3B68C01A41F657339842F6
:10AA90003FF676ADB9F1000F7FF472ADFCF7DAF94D
:10AAA00000287FF46DAD66E60398FBF75FFD002894
:10AAB00032D0344A0023536084F87230C4F85A30DC
:10AAC0009360D360136153612F4B03982F4F01257F
:10AAD0001D70FBF74BFD2E4B2E49002818BF3B463F
:10AAE0002A46184811F0ECFD92E6032B98D112E7A4
:10AAF000144805F0A3F83C287FF747AE3C230093A9
:10AB0000254910485B46324611F0DAFD3DE6032B3D
:10AB1000C0D135E53C2322E7039E1A4B32687168A9
:10AB2000B068F568DD605960C4F85A2098607169B2
:10AB30003269596101211A6184F87210C4E700BFBB
:10AB400024390400347700203C4004004066002093
:10AB500008600020416600203C660020246600203A
:10AB60002840040024400400AC400400A86F0020EA
:10AB7000B26700201C660020B167002038740020F6
:10AB8000986F00209E660020206600202C40040064
:10AB900034400400C84004006040040021660020E6
:10ABA0002DE9F04F022985B0804615461C467CD021
:10ABB000032977D1002B75D0012B88BF92F801B003
:10ABC000167898BF4FF0000B022B1F4638BF0227A4
:10ABD000023FBAB286F080030292092B05F102020D
:10ABE000039240F2A480012800F0E380C04805F001
:10ABF00025F8502800F3BD80DFF82C834FF03F0983
:10AC000040464A460021A8F1CD0415F089F80023FA
:10AC1000832EA4F80C3100F0918106F15E03DBB2C3
:10AC2000122B00F25581A6F1A203122B00F25081E3
:10AC3000DFE813F01D0105014E014E014E014E01EA
:10AC40004E014E014E014E014E012E0113004E01E8
:10AC50004E014E014E014E01EF00029B002B00F011
:10AC6000D481AB78002B00F03682A24DA24A012B92
:10AC700018BF154684F8CF30AE21142384F8CE30A7
:10AC80003C2284F8CD109D48002115F049F8284653
:10AC900015F036FF29460246984815F019F83F236B
:10ACA000A4F80C3105B0BDE8F08F80F08009B9F14F
:10ACB000090F59D9924F3E68002E4AD1B9F1060FBB
:10ACC00014D8002C40F05881894804F0B7FF502870
:10ACD000E8DD8C49864800944346022211F0F0FCDE
:10ACE000834805B0BDE8F04F11F07ABC804804F00D
:10ACF000A5FF5028D6DD83497D48009443460222B3
:10AD000011F0DEFC002CEBD0013C15FA84F46E1E31
:10AD100005F10D08764F7C4D16F8012F294638466F
:10AD200011F0CEFCB442DBD0B045F5D1D8E711F03C
:10AD300037FD764BB8F1010F18607FF457AF012C47
:10AD40007FF654AF822E3AD1029B9B4537DCC24638
:10AD500037E011F025FD3E68801B40F2DB56B04223
:10AD60008CBF00260126A9E711F01AFD674B186079
:10AD7000A0E74346CDE9006B65495D48DFF888915F
:10AD8000DFF86C81022211F09BFC013C15FA84F47F
:10AD90006F1E05F10D0A17F8012F4946404611F0C4
:10ADA0008FFCBC4201D05745F5D1514811F018FC39
:10ADB00022E79F2E00F0BC80012C7FF617AF4FF0EA
:10ADC000000A4F4F3B68002B40F022819946022039
:10ADD000FCF762F800283FF409AFBAF1000F40F029
:10ADE0007C81029B9B45CCBF5FFA83F9D946BBF1BE
:10ADF0003C0F00F2B4814A46A91C3046FBF7DCFF49
:10AE0000BAF1000F3FF4F2AE5946A81CFCF750F817
:10AE1000ECE611F0C5FC3F4A3C4B15681860B422C3
:10AE20000123022D84F8CD2084F8CE3000F0FD807F
:10AE300001253F2384F8CF50A4F80C3132E7364B7C
:10AE400094F8CC100022A32518205A60C4F8CF2013
:10AE50009A60DA601A615A6184F8CD5084F8CE00A5
:10AE6000002940F0F1803F23A4F80C311AE7BBF130
:10AE7000170F03D9029B172B00F24B81A22100224E
:10AE80003F2384F8CD1084F8CE20A4F80C3109E7D4
:10AE9000029B002B40F08380DFF890801F4E204DF6
:10AEA000204F98F800203B783678287884F8CF2017
:10AEB000AD21042284F8D0303F2384F8D16084F897
:10AEC000D20084F8CD1084F8CE20A4F80C31E9E645
:10AED000029B84F8CD6084F8CEB0002BC3D03C2B0D
:10AEE0001A4603990C4828BF3C2214F0F1FEBAE739
:10AEF00034770020A86F0020204004001467002051
:10AF0000307400203C400400584004003874002095
:10AF10008440040004600020136700204066002085
:10AF20000860002041660020116700202166002093
:10AF3000FBF7D6FE012C3FF642AF57E69B4B84F859
:10AF4000CD6019685A68C8F802109E68DD681969F2
:10AF5000187EC4F8D3205A69A4F80C911923C4F8B8
:10AF6000D760C4F8DB50C4F8DF10C4F8E32084F8DD
:10AF7000E70084F8CE3095E60220FBF78DFF00282D
:10AF800072D18B4804F05AFE50287FF78BAE894966
:10AF9000009443460222864811F092FBB4E6AB7857
:10AFA000DFF86482002B14BF0122002288F8002001
:10AFB00000F08B80804E02233370029B012B00F047
:10AFC000E080EB78002B08BF3C237C4D7C4F2B703E
:10AFD00001233B7011F0E4FB7A4A7B4B106098F838
:10AFE00000C07A4A7A480021196059609960D96096
:10AFF000196159618C4508BF02462B78009333785C
:10B0000074496B4811F05CFB4BE7734D012331E64B
:10B0100011F0C6FB3B6840F2DB59C01A48458CBFB3
:10B020004FF000094FF00109D1E66C4B1B78002B63
:10B030007FF4FEAE11F0B4FB694B1B68C01AB0F58B
:10B04000FA7FFFF4F6AEF3E61A4652F81B1DD668F7
:10B0500050689568DE60C4F8CF1058609D605069F4
:10B06000116958611961FEE65E4B1B78002B73D1A4
:10B070005D4F3B68002B84D011F092FB3B68C01AF7
:10B0800041F6573398423FF67CAF002E7FF479AFFC
:10B09000FBF7E0FE00287FF474AF3C2C224628BF6B
:10B0A0003C22D2B229464046FBF786FEB8F1820F19
:10B0B0007FF467AF21462846FBF7FAFE3C4804F0D0
:10B0C000BDFD50287FF7EEAD61E73D4F404A3A4E57
:10B0D0003A4D3B7091E7454DCCE5424B1B78002B38
:10B0E0004CD1414F3A68002A3FF480AD11F058FB33
:10B0F0003B68C01A41F6573398423FF677ADB9F135
:10B10000000F7FF473ADFBF7A5FE00287FF46EAD52
:10B1100067E60398FBF72AFA002834D0344A002364
:10B12000536084F8CC30C4F8B4309360D3601361BA
:10B130005361304B0398304D01221A70FBF716FA19
:10B140002E4A2F490346002B14BF2B46134618489E
:10B15000022211F0B5FA91E6032B96D111E71448BB
:10B1600004F06CFD3C287FF746AE3C230093254954
:10B170000F485B46324611F0A3FA3CE6032BBED1E2
:10B1800034E53C2321E7039E194B32687168B068AF
:10B19000F568DD605960C4F8B4209860716932695F
:10B1A000596101211A6184F8CC10C2E724390400E6
:10B1B000347700203C4004004066002008600020F6
:10B1C000416600203C6600202466002028400400E0
:10B1D00024400400AC400400A86F0020B2670020A7
:10B1E0001C660020B167002038740020986F002092
:10B1F000F8660020206600202C4004003440040043
:10B20000C840040060400400216600202DE9F04F92
:10B21000022985B0804615461C467ED0032979D187
:10B22000002B77D0012B88BF92F801B0167898BF19
:10B230004FF0000B022B1F4638BF0227023FBAB265
:10B2400086F080030292092B05F10202039240F27C
:10B25000A680012800F0E580C14804F0EFFC5028EA
:10B2600000F3BF80DFF830836FF493734FF03F0932
:10B2700008EB030440464A46002114F051FD002328
:10B28000832EA4F8663100F0918106F15E03DBB2F3
:10B29000122B00F25581A6F1A203122B00F250816D
:10B2A000DFE813F01D0105014E014E014E014E0174
:10B2B0004E014E014E014E014E012E0113004E0172
:10B2C0004E014E014E014E01EF00029B002B00F09B
:10B2D000D481AB78002B00F03782A24DA24A012B1B
:10B2E00018BF154684F82931AE21142384F828317B
:10B2F0003C2284F827119D48002114F011FD2846B6
:10B3000015F0FEFB29460246984814F0E1FC3F2365
:10B31000A4F8663105B0BDE8F08F80F08009B9F17E
:10B32000090F59D9924F3E68002E4AD1B9F1060F44
:10B3300014D8002C40F05881894804F07FFC502834
:10B34000E8DD8C49864800944346032211F0B8F9A1
:10B35000834805B0BDE8F04F11F042B9804804F0D1
:10B360006DFC5028D6DD83497D4800944346032276
:10B3700011F0A6F9002CEBD0013C15FA84F46E1EF6
:10B3800005F10D08764F7C4D16F8012F29463846F9
:10B3900011F096F9B442DBD0B045F5D1D8E711F001
:10B3A000FFF9764BB8F1010F18607FF455AF012C0F
:10B3B0007FF652AF822E3AD1029B9B4537DCC246C4
:10B3C00037E011F0EDF93E68801B40F2DB56B042E9
:10B3D0008CBF00260126A9E711F0E2F9674B18603F
:10B3E000A0E74346CDE9006B65495D48DFF88891E9
:10B3F000DFF86C81032211F063F9013C15FA84F443
:10B400006F1E05F10D0A17F8012F4946404611F04D
:10B4100057F9BC4201D05745F5D1514811F0E0F839
:10B4200020E79F2E00F0BC80012C7FF615AF4FF077
:10B43000000A4F4F3B68002B40F0228199460320C1
:10B44000FBF72AFD00283FF407AFBAF1000F40F0E8
:10B450007D81029B9B45CCBF5FFA83F9D946BBF146
:10B460003C0F00F2B5814A46A91C3046FBF7A4FC0C
:10B47000BAF1000F3FF4F0AE5946A81CFBF718FDD7
:10B48000EAE611F08DF93F4B3C4A1B681060B4218D
:10B490000122032B84F8271184F8282100F0FD8075
:10B4A00001223F2384F82921A4F8663132E7364B84
:10B4B00094F826110022A32518205A60C4F82921E7
:10B4C0009A60DA601A615A6184F8275184F8280179
:10B4D000002940F0F2803F23A4F866311AE7BBF15F
:10B4E000170F03D9029B172B00F24C81A2210022D7
:10B4F0003F2384F8271184F82821A4F8663109E74E
:10B50000029B002B40F08380DFF890801F4E204D7F
:10B51000204F98F800203B783678287884F8292145
:10B52000AD21042284F82A313F2384F82B6184F86A
:10B530002C0184F8271184F82821A4F86631E9E663
:10B54000029B84F8276184F828B1002BC3D03C2BE0
:10B550001A4603990C4828BF3C2214F0B9FBBAE7FD
:10B5600034770020A86F0020204004006E67002080
:10B57000307400203C40040058400400387400201F
:10B5800084400400046000206D67002040660020B5
:10B5900008600020416600206B67002021660020C3
:10B5A000FBF79EFB012C3FF642AF55E69C4B84F81F
:10B5B000276119685A68C8F802109E68DD68196921
:10B5C000187EC4F82D215A69A4F866911923C4F88D
:10B5D0003161C4F83551C4F83911C4F83D2184F8FB
:10B5E000410184F8283195E60320FBF755FC00283B
:10B5F00073D18C4804F022FB50287FF78BAE8A4928
:10B60000009443460322874811F05AF8B4E6AB7819
:10B61000DFF86882002B14BF0122002288F8002086
:10B6200000F08C80814E03233370029B012B00F0CD
:10B63000E180EB78002B08BF3C237D4D7D4F2B70C4
:10B6400001233B7011F0ACF87B4A7C4B106098F8FA
:10B6500000C07B4A7B480021196059609960D9601D
:10B66000196159618C4508BF02462B7800933378E5
:10B6700075496C4811F024F84BE7744D012331E60D
:10B6800011F08EF83B6840F2DB59C01A48458CBF78
:10B690004FF000094FF00109D1E66D4B1B78002BEC
:10B6A0007FF4FEAE11F07CF86A4B1B68C01AB0F54F
:10B6B000FA7FBFF4F5AE0222F3E61A4652F81B1DDC
:10B6C000D66850689568DE60C4F8291158609D609E
:10B6D0005069116958611961FDE65F4B1B78002BB9
:10B6E00073D15E4F3B68002B83D011F059F83B6853
:10B6F000C01A41F6573398423FF67BAF002E7FF4D5
:10B7000078AFFBF7A7FB00287FF473AF3C2C2246F1
:10B7100028BF3C22D2B229464046FBF74DFBB8F188
:10B72000820F7FF466AF21462846FBF7C1FB3D48F8
:10B7300004F084FA50287FF7EDAD60E73D4F414AB1
:10B740003A4E3B4D3B7090E7454DCBE5424B1B7865
:10B75000002B4CD1414F3A68002A3FF47DAD11F0E7
:10B760001FF83B68C01A41F6573398423FF674AD54
:10B77000B9F1000F7FF470ADFBF76CFB00287FF48C
:10B780006BAD66E60398FAF7F1FE002834D0354A2F
:10B790000023536084F82631C4F80E319360D360DF
:10B7A00013615361304B0398304D01221A70FAF740
:10B7B000DDFE2F4A2F490346002B14BF2B461346AC
:10B7C0001848032210F07CFF90E6032B96D110E777
:10B7D000144804F033FA3C287FF745AE3C2300932D
:10B7E000254910485B46324610F06AFF3BE6032BC2
:10B7F000BED131E53C2320E7039E1A4B32687168C5
:10B80000B068F568DD605960C4F80E219860716910
:10B810003269596101211A6184F82611C2E700BF1B
:10B8200024390400347700203C40040040660020A6
:10B8300008600020416600203C660020246600204D
:10B840002840040024400400AC400400A86F0020FD
:10B85000B26700201C660020B16700203874002009
:10B86000986F002052670020206600202C400400C2
:10B8700034400400C84004006040040021660020F9
:10B880002DE9F04F022985B0804615461C4679D037
:10B89000032974D1002B72D0012B88BF92F801B01C
:10B8A000167898BF4FF0000B022B1F4638BF0227B7
:10B8B000023FBAB286F080030292092B05F1020220
:10B8C000039240F2A180012800F0E080BA4804F021
:10B8D000B5F9502800F3BA80DFF814834FF03F0920
:10B8E00040464A460021A8F1190414F019FA002331
:10B8F000832EA4F8583000F07F8106F15E03DBB29E
:10B90000122B00F24381A6F1A203122B00F23E811A
:10B91000DFE813F01401FF003C013C013C013C0155
:10B920003C013C013C013C013C01230113003C0172
:10B930003C013C013C013C01EC00029B002B00F06F
:10B94000C081AB78002B00F021829C4D9C4A012BDA
:10B9500018BF1546E376AE211423A3763C22617608
:10B960009848002114F0DCF9284615F0C9F829465A
:10B970000246944814F0ACF93F23A4F8583005B0BF
:10B98000BDE8F08F80F08009B9F1090F59D98E4FC9
:10B990003E68002E4AD1B9F1060F14D8002C40F0B1
:10B9A0004781854804F04AF95028E8DD87498248F4
:10B9B00000944346224610F083FE7F4805B0BDE860
:10B9C000F04F10F00DBE7C4804F038F95028D6DD59
:10B9D0007E49794800944346002210F071FE002C05
:10B9E000EBD0013C15FA84F46E1E05F10D08724F80
:10B9F000774D16F8012F2946384610F061FEB44203
:10BA0000DBD0B045F5D1D8E710F0CAFE714BB8F1E4
:10BA1000010F18607FF45AAF012C7FF657AF822ECA
:10BA20003AD1029B9B4537DCC24637E010F0B8FEA6
:10BA30003E68801B40F2DB56B0428CBF00260126D8
:10BA4000A9E710F0ADFE634B1860A0E74346CDE9CF
:10BA5000006B61495848DFF87891DFF85C8100227B
:10BA600010F02EFE013C15FA84F46F1E05F10D0A4C
:10BA700017F8012F4946404610F022FEBC4201D083
:10BA80005745F5D14C4810F0ABFD25E79F2E00F04F
:10BA90008C80012C7FF61AAF4FF0000A4A4F3B68AA
:10BAA000002B40F0118199460020FBF7F5F90028A2
:10BAB0003FF40CAFBAF1000F40F06A81029B9B4546
:10BAC000CCBF5FFA83F9D946BBF13C0F00F29E81EF
:10BAD0004A46A91C3046FBF76FF9BAF1000F3FF454
